:020000040000FA
:100000000C9463000C94FE050C94D7050C94250603
:100010000C9425060C9425060C948B000C948B00F4
:100020000C948B000C948B000C948B000C948B0024
:100030000C948B000C948B000C948B000C948B0014
:100040000C948D050C948B000C945B050C94350579
:100050000C948B000C948B000C948B000C948B00F4
:100060000C948B000C948B000000000024002700EF
:100070002A0000000008000201000003040700003D
:1000800000000000000000000000230026002900FE
:1000900000000000250028002B00040404040404D0
:1000A0000404020202020202030303030303010227
:1000B00004081020408001020408102001020408F6
:1000C00010209D06F30A11241FBECFEFD8E0DEBF3B
:1000D000CDBF23E0AEEDB1E001C01D92A532B20765
:1000E000E1F711E0A0E0B1E0E8E3F0E202C0059042
:1000F0000D92AE3DB107D9F710E0C2E6D0E004C0E2
:100100002197FE010E94760BC136D107C9F70E94E4
:10011000C6070C940F100C94000084E090E09093BC
:100120004402809343020895AF92BF92CF92DF9230
:10013000EF92FF920F931F93CF93DF936C017B019C
:100140008B01040F151FEB015E01AE18BF08C0172D
:10015000D10759F06991D601ED91FC910190F081A0
:10016000E02DC6010995892B79F7C501DF91CF9163
:100170001F910F91FF90EF90DF90CF90BF90AF90C5
:100180000895FC01538D448D252F30E0842F90E09D
:10019000821B930B541710F0CF9608950197089582
:1001A000FC01918D828D981761F0A28DAE0FBF2F4B
:1001B000B11D5D968C91928D9F5F9F73928F90E0A1
:1001C00008958FEF9FEF0895FC01918D828D981710
:1001D00031F0828DE80FF11D858D90E008958FEF4D
:1001E0009FEF0895FC01918D228D892F90E0805C16
:1001F0009F4F821B91098F739927089587E492E09E
:100200000E94F20021E0892B09F420E0822F08955A
:10021000EF92FF920F931F93CF93DF9301E010E0D3
:10022000C3E0D0E082E0E82EF12C87E492E00E9467
:10023000F20018161906F4F487E492E00E94D00048
:10024000823449F0833461F0813479F4F0924402CD
:10025000E0924302EACF1093440200934302E5CFB9
:100260001092440210924302E0CFD0934402C09314
:100270004302DBCFDF91CF911F910F91FF90EF9061
:1002800008950E94FE0081110C9408010895FC015C
:10029000A48DA80FB92FB11DA35ABF4F2C91848DE7
:1002A00090E001968F739927848FA689B7892C9344
:1002B000A089B1898C91837080648C93938D848D97
:1002C000981306C00288F389E02D80818F7D80839A
:1002D0000895EF92FF920F931F93CF93DF93EC015A
:1002E00081E0888F9B8D8C8D98131AC0E889F989DD
:1002F000808185FF15C09FB7F894EE89FF896083E0
:10030000E889F98980818370806480839FBF81E060
:1003100090E0DF91CF911F910F91FF90EF900895A2
:10032000F62E0B8D10E00F5F1F4F0F731127E02E7D
:100330008C8D8E110CC00FB607FCFACFE889F989B5
:10034000808185FFF5CFCE010E944701F1CFEB8D73
:10035000EC0FFD2FF11DE35AFF4FF0829FB7F89489
:100360000B8FEA89FB8980818062CFCFCF93DF93A7
:10037000EC01888D8823B9F0AA89BB89E889F989BD
:100380008C9185FD03C0808186FD0DC00FB607FCF2
:10039000F7CF8C9185FFF2CF808185FFEDCFCE0125
:1003A0000E944701E9CFDF91CF910895833081F01A
:1003B00028F4813099F08230A9F008958730A9F0AF
:1003C0008830C9F08430B1F4809180008F7D03C003
:1003D000809180008F7780938000089584B58F7717
:1003E00084BD089584B58F7DFBCF8091B0008F7759
:1003F0008093B00008958091B0008F7DF9CF1F9356
:10040000CF93DF93282F30E0F901EE58FF4F84910E
:10041000F901E255FF4FD491F901E656FF4FC4911F
:10042000CC23A9F0162F81110E94D601EC2FF0E009
:10043000EE0FFF1FE057FF4FA591B4918FB7F894CF
:10044000EC91111108C0D095DE23DC938FBFDF91B2
:10045000CF911F910895DE2BF8CFCF93DF9390E0DB
:10046000FC01E255FF4F249186569F4FFC01849179
:100470008823C9F090E0880F991FFC01E859FF4FCD
:10048000A591B491FC01E057FF4FC591D491611142
:100490000DC09FB7F8948C91209582238C9388810E
:1004A000282328839FBFDF91CF910895623051F4B4
:1004B0009FB7F8943C91822F809583238C93E88199
:1004C0002E2BEFCF8FB7F894EC912E2B2C938FBF60
:1004D000EACFE82FF0E0EE58FF4FE491E33029F146
:1004E00050F4E130C1F0E230D9F060387105BCF56C
:1004F00060E00C94FF01E73011F1E83041F1E430A5
:10050000A1F78091800080628093800070938B00BF
:1005100060938A00089584B5806884BD67BD08959E
:1005200084B5806284BD68BD089580918000806834
:100530008093800070938900609388000895809173
:10054000B00080688093B0006093B30008958091FC
:10055000B00080628093B0006093B400089561E0C1
:10056000C8CF3FB7F8948091230290912402A091C4
:100570002502B091260226B5A89B05C02F3F19F091
:100580000196A11DB11D3FBFBA2FA92F982F882713
:10059000BC01CD01620F711D811D911D42E0660FEE
:1005A000771F881F991F4A95D1F708958F929F92C0
:1005B000AF92BF92CF92DF92EF92FF924B015C011C
:1005C0000E94B1026B017C010E94B1026C197D098D
:1005D0008E099F09683E734081059105A8F321E0CB
:1005E000821A9108A108B10888EEC80E83E0D81ECF
:1005F000E11CF11C81149104A104B10429F7FF90BE
:10060000EF90DF90CF90BF90AF909F908F90089524
:1006100008952091290230912A022817390771F490
:100620009091270280912802981741F0E0912702CB
:10063000F0E0E252FE4F808190E008958FEF9FEF4F
:1006400008950895EF92FF920F931F93CF93DF9336
:10065000DC015C96ED90FC905D97E114F10479F477
:1006600081E090E013969C938E93129790E080E047
:10067000DF91CF911F910F91FF90EF9008955196C8
:10068000ED91FC91529750968C915097982F9095A0
:100690000FB75E962C915E97122F127021FD609518
:1006A000F8942081112319F1282B2083E701219749
:1006B000F1F728E0462F50E0308160FF1AC0382B58
:1006C0003083E7012197F1F7BA01759567952150BD
:1006D00089F7112381F08081892380830FBF5C9685
:1006E0008D919C910197F1F781E090E0C1CF292392
:1006F000DCCF3923E5CF9081892BEFCF20912902E0
:1007000030912A022817390771F48091280220912C
:10071000270290E0805C9F4F821B910960E470E0AB
:100720000E944E0B089590E080E0089520912902E8
:1007300030912A0228173907B9F490912702809145
:100740002802981789F0E0912702F0E0E252FE4F6C
:1007500080812091270230E02F5F3F4F2F73332796
:100760002093270290E008958FEF9FEF089508955A
:1007700090E080E00895CF93DF93EC0169916623C8
:1007800029F087E492E00E946901F8CF68E873E1FC
:1007900080E090E0DF91CF910C94D602CF93DF936D
:1007A000EC0160E08E810E94FF0161E08E810E9479
:1007B000FF0160E08E810E94FF018BE891E00197CC
:1007C000F1F7DF91CF910895CF92DF92EF92FF92F0
:1007D0000F931F93CF93DF936C017C0187E0E80EAA
:1007E000F11CD0E0C0E0062F10E0B8010C2E02C0D2
:1007F000759567950A94E2F76170F70181917F0121
:100800000E94FF012196C430D10579F7C601DF911E
:10081000CF911F910F91FF90EF90DF90CF900C94AC
:10082000CE03CF92DF92EF92FF920F931F93CF935D
:10083000DF93EC01F62E642F8C810E94FF018D81E5
:100840008F3F19F060E00E94FF010F2D10E08F85AF
:1008500084FF25C06E0187E0C80ED11CF12CE12C6D
:10086000B8010E2C02C0759567950A94E2F7617085
:10087000F60181916F010E94FF01FFEFEF1AFF0A5D
:1008800088E0E816F10461F7CE01DF91CF911F9166
:100890000F91FF90EF90DF90CF900C94CE03B801B2
:1008A00084E0759567958A95E1F7CE010E94E4038F
:1008B0006F2DCE01DF91CF911F910F91FF90EF909F
:1008C000DF90CF900C94E40340E0682F89E093E040
:1008D0000C94110481E00E9464048BE39FE1019772
:1008E000F1F70895CF93DF93823029F490911803A4
:1008F00098609093180380931C0310921D0380E46A
:1009000080931E0380E180931F0380E58093200382
:1009100061E080910D030E942D0280910E038F3FB4
:1009200019F061E00E942D0261E080910F030E94A6
:100930002D02C9E0D3E09E01295033408091180375
:1009400084FD0BC084E090E021962817390744F419
:1009500061E08E810E942D02EECF88E090E0F4CF1E
:100960008BE39DE00197F1F760E080910D030E9419
:10097000FF0160E080910F030E94FF0180910E0350
:100980008F3F19F060E00E94FF018091180384FD01
:1009900034C063E089E093E00E94E403CBE4D6E452
:1009A000CE010197F1F763E089E093E00E94E40350
:1009B0002197F1F763E089E093E00E94E40383E587
:1009C00092E00197F1F762E089E093E00E94E4038E
:1009D0008091180380620E94640484E0809319036C
:1009E0008CE00E9464040E946A0482E080931A03EF
:1009F00086E0DF91CF910C94640480620E946404CD
:100A00008BE496E40197F1F78091180380620E94CD
:100A1000640483E592E00197F1F780911803806206
:100A20000E946404D5CF90911C03691710F06FEFFA
:100A3000690FE62FF0E0E75FFC4F9489890F80682B
:100A40000C94640441E00E94110481E090E0089558
:100A5000FC0101900020E9F73197AF01481B590BC9
:100A6000BC0189E093E00C9494001F920F920FB6A2
:100A70000F9211242F933F934F935F936F937F9324
:100A80008F939F93AF93BF93EF93FF9387E492E08D
:100A90000E944701FF91EF91BF91AF919F918F917C
:100AA0007F916F915F914F913F912F910F900FBE6A
:100AB0000F901F9018951F920F920FB60F9211244E
:100AC0002F938F939F93EF93FF93E0915702F091B1
:100AD00058028081E0915D02F0915E0282FD1BC0B0
:100AE0009081809160028F5F8F73209161028217E5
:100AF00041F0E0916002F0E0E95BFD4F958F80935B
:100B00006002FF91EF919F918F912F910F900FBEF7
:100B10000F901F9018958081F4CF1F920F920FB6FF
:100B20000F9211242F933F938F939F93AF93BF9373
:100B300080911F0290912002A0912102B091220287
:100B400030911E0223E0230F2D3758F50196A11D89
:100B5000B11D20931E0280931F0290932002A09348
:100B60002102B09322028091230290912402A0914D
:100B70002502B09126020196A11DB11D809323028A
:100B800090932402A0932502B0932602BF91AF91C7
:100B90009F918F913F912F910F900FBE0F901F90BB
:100BA000189526E8230F0296A11DB11DD2CF1F92E2
:100BB0000F920FB60F9211242F933F934F935F9391
:100BC0006F937F938F939F93AF93BF93EF93FF9315
:100BD000E0910201F09103010995FF91EF91BF911E
:100BE000AF919F918F917F916F915F914F913F91C5
:100BF0002F910F900FBE0F901F9018951F920F927C
:100C00000FB60F9211242F933F934F935F936F93DF
:100C10007F938F939F93AF93BF93EF93FF93E09155
:100C20000001F09101010995FF91EF91BF91AF9102
:100C30009F918F917F916F915F914F913F912F91F4
:100C40000F900FBE0F901F9018951F920F920FB626
:100C50000F9211242F933F934F935F936F937F9342
:100C60008F939F93AF93BF93EF93FF93E0912902EC
:100C7000F0912A02309749F0A685B7858585968D33
:100C800091FF14C09C918923A1F4FF91EF91BF9132
:100C9000AF919F918F917F916F915F914F913F9114
:100CA0002F910F900FBE0F901F9018959C91892344
:100CB00061F7A389B4899C918589809589238C9358
:100CC000868997890197F1F7608D718DA685B78523
:100CD000558538E020E0CB010197F1F7822F90E0B5
:100CE00095958795282F4C91452309F02068315020
:100CF00091F7868D81FD20958091280290E00196E4
:100D00008F73992730912702381799F0A091280204
:100D1000B0E0A252BE4F2C9380932802828D938D17
:100D20000197F1F7A389B4898C919589892B8C93CC
:100D3000ACCF868D8160868FF1CFCF92DF92EF921C
:100D4000FF9210924A021092490298EEC92E93E047
:100D5000D92EE12CF12CC0924B02D0924C02E092A1
:100D60004D02F0924E0283E691E090934802809308
:100D7000470285EC90E0909354028093530284ECF8
:100D800090E0909356028093550280EC90E090930F
:100D900058028093570281EC90E090935A0280931E
:100DA000590282EC90E090935C0280935B0286ECA7
:100DB00090E090935E0280935D0210926002109228
:100DC0006102109262021092630210920C03109260
:100DD0000B0387E891E090930A03809309038DE069
:100DE00080930D038FEF80930E038CE080930F03AD
:100DF0008BE0809310038AE08093110389E0809355
:100E0000120388E0809313031092140310921503C9
:100E100010921603109217031092180381E00E949B
:100E200072041092ED021092EC02C092EE02D09287
:100E3000EF02E092F002F092F10285E791E09093E8
:100E4000EB028093EA0210920103109200031092C9
:100E500003031092020310920503109204031092F0
:100E6000070310920603609108036E7F6D7F609305
:100E700008036695617081E0682784E00E94FF01A5
:100E800061E084E00E942D02E2EBF0E0E491E09367
:100E9000FA02EEE9F0E0E491F0E0EE0FFF1FE05718
:100EA000FF4F859194919093FC028093FB0260E048
:100EB00083E00E942D028091080381FD04C061E05F
:100EC00083E00E94FF0183E08093F602E1EBF0E013
:100ED000E491E093F702EDE9F0E0E491F0E0EE0F49
:100EE000FF1FEA57FF4F859194919093F9028093E9
:100EF000F8021092E5021092E4021092E7021092BA
:100F0000E6021092E9021092E80261E070E090E0DF
:100F100080E00E94A10C009701F19093E50280937C
:100F2000E4021092E7021092E6022091E80230916A
:100F3000E902232B11F4FC0110821092E9021092B5
:100F4000E8026CED71E08091E4029091E502FF907F
:100F5000EF90DF90CF900C94670D8091E402909118
:100F6000E502009711F00E94180C1092E502109211
:100F7000E4021092E9021092E8021092E702109245
:100F8000E602FF90EF90DF90CF900895789484B5BB
:100F9000826084BD84B5816084BD85B5826085BD75
:100FA00085B5816085BD80916E00816080936E0003
:100FB00010928100809181008260809381008091F5
:100FC00081008160809381008091800081608093A6
:100FD00080008091B10084608093B1008091B00066
:100FE00081608093B00080917A00846080937A0061
:100FF00080917A00826080937A0080917A0081608B
:1010000080937A0080917A00806880937A001092B1
:10101000C100E0915702F091580282E08083E09194
:101020005302F09154021082E0915502F091560261
:101030008FEC808310925F02E0915B02F0915C0282
:1010400086E08083E0915902F0915A0280818061AC
:101050008083E0915902F0915A02808188608083F8
:10106000E0915902F0915A02808180688083E0917A
:101070005902F0915A0280818F7D8083109205037E
:1010800010920403109203031092020310920103C2
:10109000109200038DE991E090930703809306037B
:1010A0009091F602963108F047C02DEB30E0309376
:1010B0000103209300032BE931E0309303032093D5
:1010C00002032CE231E030930503209304032091C6
:1010D000680084E0983048F031E09E3008F430E059
:1010E00081E001C0880F3A95EAF7822B809368006F
:1010F0002DE630E0983050F02BE630E09E3030F0B6
:101100002CE630E0963110F030E020E03093FE0223
:101110002093FD02292F30E0983008F0D7C081E0FD
:1011200001C0880F9A95EAF78093FF028091060329
:10113000909107030197F1F78091040390910503C3
:10114000892B49F1E0912902F0912A0222E0EA3E3E
:10115000F20709F1309739F0A389B4899C91858908
:10116000809589238C93809108038E7F8093080358
:1011700010922802109227028AEE92E090932A029F
:1011800080932902E091FD02F091FE02808190910E
:10119000FF02892B808361E086E00E942D0261E0DE
:1011A00087E00E942D0261E08EE00E942D0261E046
:1011B0008FE00E942D0262E082E00E942D0262E038
:1011C00083E10E942D0282E00E9472040E946A0460
:1011D00060E080E00E9413058FE891E00E942805FE
:1011E00061E080E00E94130589E991E00E942805F2
:1011F0008DE890E090930101809300018091690057
:101200008C7F826080936900E89A60ED77E080E0EF
:1012100090E00E94D6020E946A0483E090E09093DE
:1012200044028093430290932D0280932C021092EB
:101230002F0210922E0210924602109245020E9436
:101240006A0460E080E00E94130586EA91E00E9453
:10125000280561E080E00E94130587EB91E00E9481
:10126000280560ED77E080E090E00E94D6020E94C1
:101270006A04E5E8F0E08491E1ECF0E0D491EDEA75
:10128000F0E0C491C1112FC00E946A0461E080E0C7
:101290000E94130583EC91E00E94280580912B02A7
:1012A00081119BC0C0E08AEE92E00E947E03181676
:1012B0001906A4F78AEE92E00E949603D82F833293
:1012C00009F07FC081E080932B02E8CF9E3040F48C
:1012D0002850310981E001C0880F2A95EAF724CF10
:1012E0002E503109F7CF81110E94D601EC2FF0E08A
:1012F000EE0FFF1FEA57FF4FA591B491EC91ED233C
:1013000009F4C2CF02ED11E0C2E3D2E03DE3232EA7
:1013100031E0332E4EE4442E41E0542E6624639493
:10132000712C62E0E62EF12C8AE0882E81E0982E66
:101330009BE1C92E91E0D92E28EDA22E21E0B22EFC
:1013400080914302909144028230910509F480C05B
:1013500008F04CC0009709F4B7C08130910509F43A
:101360008CC080912C0290912D028130910509F45E
:10137000CBC008F4BCC08230910509F4D1C00397FA
:1013800009F4D5C080912E0290912F0281309105F1
:1013900009F4D9C008F4D0C0029709F4E3C08091E1
:1013A0004502909146028130910509F4E6C002970A
:1013B00009F4F2C00E94FE00882311F20E94080185
:1013C000B3CF60E08C2F0E94130541E06D2F89E0C0
:1013D00093E00E941104CF5F66CF68E873E180E07C
:1013E00090E00E94D6020E946A048CCF833091055F
:1013F000C1F0049709F0B5CF5F924F921F930F93FE
:10140000DF93CF930E946E0D60E080E00E94130591
:1014100082E392E00E942805F0924602E0924502A3
:101420004CC010922F0210922E0290932D028093A6
:101430002C02109246021092450290933102809342
:1014400030023F922F921F930F93DF93CF932BC0C5
:1014500010922F0210922E0210922D0210922C0246
:10146000109246021092450290933102809330020E
:101470008CE291E09F938F93E6CF90932F0280931D
:101480002E0290932D0280932C021092460210920D
:1014900045029093310280933002DF92CF921F93E6
:1014A0000F93DF93CF930E946E0D60E080E00E9467
:1014B000130582E392E00E9428050F900F900F9091
:1014C0000F900F900F904DCFF0922F02E0922E02CE
:1014D000F0922D02E0922C02709246026092450238
:1014E00010923102109230029F928F92ACCF61E045
:1014F0008FE00E942D0261E08FE00E94FF0161E019
:101500008EE00E94FF013ECF61E086E00E942D0246
:1015100064E670E086E00E94690260E087E0F1CF57
:1015200061E086E00E942D0262E370E0F3CF60E0AC
:1015300086E00E94FF01F1CF61E08EE00E94FF0192
:1015400061E08FE00CC060E08EE00E94FF0168EE79
:1015500073E080E090E00E94D60261E08EE00E949D
:10156000FF011DCF60E08FE00E94FF0168EE73E095
:1015700080E090E00E94D602E3CF209143023091B8
:10158000440241E1429FC001439F900D1124865FB8
:101590009E4F0E94BB030ECF209143023091440224
:1015A00041E1429FC001439F900D1124865F9E4FF1
:1015B0009F938F93BF92AF92DF93CF930E946E0D54
:1015C00082E392E00E94BB0380913002909131024D
:1015D00090934402809343020F900F900F900F90CE
:1015E0000F900F90E7CE8091E4029091E502009772
:1015F00011F00E94180C85E791E09093EB02809324
:10160000EA028091290290912A028A5E924071F446
:10161000E091FD02F091FE0290818091FF028095A1
:101620008923808310922A021092290208952F9212
:101630003F924F925F926F927F928F929F92AF9262
:10164000BF92CF92DF92EF92FF920F931F93CF93AF
:10165000DF93CDB7DEB7CA1BDB0B0FB6F894DEBF46
:101660000FBECDBF09942A88398848885F846E846C
:101670007D848C849B84AA84B984C884DF80EE80B6
:10168000FD800C811B81AA81B981CE0FD11D0FB6BF
:10169000F894DEBF0FBECDBFED01089597FB072E76
:1016A00016F4009407D077FD09D00E94620B07FC66
:1016B00005D03EF4909581959F4F08957095619562
:1016C0007F4F0895AA1BBB1B51E107C0AA1FBB1F78
:1016D000A617B70710F0A61BB70B881F991F5A95BE
:1016E000A9F780959095BC01CD010895EE0FFF1FDD
:1016F0000590F491E02D09940F931F93CF93DF93FE
:101700008230910510F482E090E0E0912303F091A3
:10171000240330E020E0B0E0A0E0309799F42115F8
:10172000310509F44AC0281B390B24303105D8F59E
:101730008A819B816115710589F1FB019383828305
:10174000FE0111C040815181028113814817590760
:10175000E0F04817590799F4109761F012960C932E
:10176000129713961C933296CF01DF91CF911F9160
:101770000F9108950093230310932403F4CF2115B0
:10178000310551F04217530738F0A901DB019A01E6
:10179000BD01DF01F801C1CFEF01F9CF9093240320
:1017A00080932303CDCFFE01E20FF31F819391932A
:1017B0002250310939832883D7CF209121033091DA
:1017C0002203232B41F4209106013091070130932D
:1017D000220320932103209104013091050121155A
:1017E000310541F42DB73EB74091080150910901F0
:1017F000241B350BE0912103F0912203E217F3073C
:10180000A0F42E1B3F0B2817390778F0AC014E5F70
:101810005F4F2417350748F04E0F5F1F5093220388
:1018200040932103819391939FCFF0E0E0E09CCF20
:10183000CF93DF930097E9F0FC0132971382128275
:10184000A0912303B0912403ED0130E020E0109734
:10185000A1F420813181820F931F209121033091C7
:1018600022032817390709F061C0F0932203E0939F
:101870002103DF91CF910895EA01CE17DF07E8F544
:101880004A815B819E0141155105B1F7E901FB8356
:10189000EA8349915991C40FD51FEC17FD0761F4F4
:1018A000808191810296840F951FE9019983888335
:1018B000828193819B838A83F0E0E0E012968D9190
:1018C0009C9113970097B9F52D913C911197CD01FB
:1018D0000296820F931F2091210330912203281733
:1018E000390739F6309751F51092240310922303EB
:1018F000B0932203A0932103BCCFD383C283408142
:101900005181840F951FC817D90761F44E5F5F4F4F
:1019100088819981480F591F518340838A819B8117
:10192000938382832115310509F0B0CFF09324030E
:10193000E09323039ECFFD01DC01C0CF138212820E
:10194000D7CFB0E0A0E0E7EAFCE00C94190B8C01E3
:10195000009751F4CB010E947C0B8C01C801CDB7DC
:10196000DEB7E0E10C94350BFC01E60FF71F9C019C
:1019700022503109E217F30708F49DC0D901CD9137
:10198000DC911197C617D70798F0C530D10530F311
:10199000CE0104978617970708F3C61BD70B22972B
:1019A000C193D1936D937C93CF010E94180CD6CF35
:1019B0005B01AC1ABD0A4C018C0E9D1EA091230345
:1019C000B0912403512C412CF12CE12C109731F5CE
:1019D00080912103909122038815990509F05CC03C
:1019E0004616570608F058C08091040190910501F1
:1019F000009741F48DB79EB74091080150910901BD
:101A0000841B950BE817F90708F055C0F0932203E3
:101A1000E0932103F90171836083A0CF8D919C91A4
:101A2000119712966C90129713967C901397A815A5
:101A3000B90559F56C0142E0C40ED11CCA14DB048F
:101A400020F1AC014A195B09DA011296159780F072
:101A50006282738251834083D9016D937C93E11438
:101A6000F10471F0D7011396FC93EE93129776CFA1
:101A700022968C0F9D1FF90191838083F301EFCF94
:101A8000F0932403E093230369CF4816590608F422
:101A90002C017D01D3019ACFCB010E947C0B7C01EC
:101AA000009749F0AE01B8010E945E0DC8010E9486
:101AB000180C870153CF10E000E050CFFB01DC0190
:101AC00002C001900D9241505040D8F70895FB019B
:101AD000DC0101900D920020E1F70895AEE0B0E046
:101AE000E4E7FDE00C94250B0D891E8986E08C83CC
:101AF0001A8309838FEF9FE79E838D83AE01475E34
:101B00005F4F6F89788DCE0101960E94910D2F81D4
:101B10003885020F131FF80110822E96E4E00C9412
:101B2000410BABE0B0E0E7E9FDE00C94170B7C0162
:101B30003B018A01FC0117821682838181FFC8C1A3
:101B4000CE0101965C01F7019381F30193FD85912C
:101B500093FF81913F01882309F453C1853239F401
:101B600093FD859193FF81913F01853229F4B7015F
:101B700090E00E94810FE7CF912C212C312CFFE1C6
:101B8000F31538F08B3211F190F4803209F1833281
:101B900029F137FC3CC020ED280F2A3050F536FEE5
:101BA00020C08AE0989E200D1124922E06C08D320E
:101BB00091F0803371F7689430F8F30193FD8591CB
:101BC00093FF81913F018111DACF21C0689431F8F0
:101BD000689432F8F2CF689433F8EFCF689434F811
:101BE000ECCFEAE02E9E200D1124222E689435F8C9
:101BF000E4CF8E3229F436FC04C1689436F8DDCF88
:101C00008C3619F4689437F8D8CF8836B1F2982F0B
:101C10009F7D95549330E0F08336A1F18337C1F175
:101C2000833509F063C02801F2E04F0E511CF80122
:101C3000C080D180692D70E036FC02C06FEF7FEF6D
:101C4000C6010E946B0F4C01689437F882010AC0EC
:101C50000C5F1F4FFFE3F98388248394912C650167
:101C6000E89437F833FE2DC0522C8114910471F59D
:101C7000552009F468CFB70180E290E00E94810FFF
:101C80005A94F6CFF801808189830E5F1F4FE4CF0D
:101C90002801F2E04F0E511CF801C080D180692D5F
:101CA00070E036FC02C06FEF7FEFC6010E94760F36
:101CB0004C018201D5CFB70180E290E00E94810FF4
:101CC0002A942814190409F0B0F7CECFF60137FC96
:101CD000859137FE81916F01B70190E00E94810FDD
:101CE00051105A94F1E08F1A9108BFCF843619F041
:101CF000893609F077C0F80137FE6BC060817181C9
:101D0000828193810C5F1F4FF32DFF763F2E97FF4B
:101D100009C090958095709561957F4F8F4F9F4F2B
:101D2000689437F82AE030E0A5010E94B10FC82E70
:101D3000CA188C2C432C36FE0CC0E89440F8C91409
:101D400040F434FE05C032FC03C0F32DFE7E4F2E5E
:101D5000892C44FE95C0FE01EC0DF11D808180337D
:101D600009F087C0242D297E422E842D8870582E9C
:101D700043FC95C040FE8FC09C2C821418F42C0CA0
:101D8000922C981844FE91C0B70180E390E00E9425
:101D9000810F42FE09C088E790E041FE02C088E55D
:101DA00090E0B7010E94810FC91408F48AC0CA9458
:101DB000D12C9FEFC91AD90ACA0CDB1CF6018291FB
:101DC0006F01B70190E00E94810FAC14BD04B1F720
:101DD0004FCF60817181072E000C880B990B0E5F2D
:101DE0001F4F92CFD32CE894D4F82AE030E0853707
:101DF00039F1232D297FD22E8F3601F148F4883511
:101E0000A9F0F701868197812B96E2E10C94330BC0
:101E1000803749F08837A9F7D4FE02C06894D2F819
:101E200020E130E00DC06894D4F8F6CF34FE03C052
:101E3000822F8660D82E20E132E002C028E030E018
:101E4000F801D7FE0FC060817181828193810C5FA0
:101E50001F4FA5010E94B10FC82ECA183D2CE8944F
:101E600037F867CF6081718190E080E00E5F1F4F8F
:101E7000F0CF42FC02C0839478CF8394839475CFD3
:101E8000842D867809F471CFF6CFB70180E290E017
:101E90000E94810F83948214C0F3512C73CF522C73
:101EA0005818821408F46ECFF8CF842D867809F480
:101EB0007BCF8BE241FE80E247FC8DE2B70190E0F0
:101EC00071CFB70180E390E00E94810F9A946CCFAC
:101ED0008FEF9FEF99CFFC0105906150704001108A
:101EE000D8F7809590958E0F9F1F0895FC01615043
:101EF000704001900110D8F7809590958E0F9F1F2C
:101F000008950F931F93CF93DF93182F092FEB01A1
:101F10008B8181FD09C01FEF0FEF812F902FDF9183
:101F2000CF911F910F91089582FF14C02E813F81A0
:101F30008C819D81281739073CF4E881F981CF0114
:101F400001969983888310838E819F8101969F8358
:101F50008E83E3CFE885F985812F0995892BA1F33D
:101F6000DACFFA01AA27283051F1203181F1E89423
:101F70006F936E7F6E5F7F4F8F4F9F4FAF4FB1E07C
:101F80003ED0B4E03CD0670F781F891F9A1FA11D77
:101F9000680F791F8A1F911DA11D6A0F711D811D78
:101FA000911DA11D20D009F468943F912AE0269F3D
:101FB00011243019305D3193DEF6CF010895462F9C
:101FC0004770405D4193B3E00FD0C9F7F6CF462F7D
:101FD0004F70405D4A3318F0495D31FD40524193E6
:101FE00002D0A9F7EACFB4E0A695979587957795A3
:101FF0006795BA95C9F700976105710508959B012A
:10200000AC010A2E06945795479537952795BA95B2
:10201000C9F7620F731F841F951FA01D089510E05C
:10202000C2E6D0E004C0FE010E94760B2196C336C2
:10203000D107C9F7F894FFCF080308030000250370
:10204000800044414E4745525F5A4F4E45000000C4
:102050000000004D4F4445524154455F5A4F4E4594
:1020600000000000534146455F5A4F4E45000000B6
:1020700000000000004E4F5F5A4F4E450000000028
:10208000000000000000454D455247454E435900B1
:10209000000000000000000000000069019400C181
:1020A00000B601F200D000E400000000002203941A
:1020B00000B80321037E03960309030000000022F9
:1020C000059400B803B7035253534920424F41547B
:1020D000004C4F43414C495A4154494F4E00484FE0
:1020E0005453504F5420544F20434F4E43540020DC
:1020F000202072737369626F61740077616974691B
:102100006E6720666F7220697000252D313673006E
:062110002A2573230000E4
:107E0000112484B714BE81FFF0D085E080938100F7
:107E100082E08093C00088E18093C10086E0809377
:107E2000C20080E18093C4008EE0C9D0259A86E02C
:107E300020E33CEF91E0309385002093840096BBD3
:107E4000B09BFECF1D9AA8958150A9F7CC24DD24C4
:107E500088248394B5E0AB2EA1E19A2EF3E0BF2EE7
:107E6000A2D0813461F49FD0082FAFD0023811F036
:107E7000013811F484E001C083E08DD089C08234E0
:107E800011F484E103C0853419F485E0A6D080C0E4
:107E9000853579F488D0E82EFF2485D0082F10E0AE
:107EA000102F00270E291F29000F111F8ED06801E7
:107EB0006FC0863521F484E090D080E0DECF843638
:107EC00009F040C070D06FD0082F6DD080E0C81688
:107ED00080E7D80618F4F601B7BEE895C0E0D1E017
:107EE00062D089930C17E1F7F0E0CF16F0E7DF06D8
:107EF00018F0F601B7BEE89568D007B600FCFDCFD4
:107F0000A601A0E0B1E02C9130E011968C91119780
:107F100090E0982F8827822B932B1296FA010C0160
:107F200087BEE89511244E5F5F4FF1E0A038BF0790
:107F300051F7F601A7BEE89507B600FCFDCF97BE46
:107F4000E89526C08437B1F42ED02DD0F82E2BD052
:107F50003CD0F601EF2C8F010F5F1F4F84911BD097
:107F6000EA94F801C1F70894C11CD11CFA94CF0C13
:107F7000D11C0EC0853739F428D08EE10CD085E9AC
:107F80000AD08FE07ACF813511F488E018D01DD067
:107F900080E101D065CF982F8091C00085FFFCCF94
:107FA0009093C60008958091C00087FFFCCF809118
:107FB000C00084FD01C0A8958091C6000895E0E648
:107FC000F0E098E1908380830895EDDF803219F02E
:107FD00088E0F5DFFFCF84E1DECF1F93182FE3DFCA
:107FE0001150E9F7F2DF1F91089580E0E8DFEE27F6
:047FF000FF270994CA
:027FFE00040479
:00000001FF
